{
  "contractName": "VehicleRegistry",
  "abi": [
    {
      "constant": true,
      "inputs": [],
      "name": "NumberOfVehicles",
      "outputs": [
        {
          "name": "",
          "type": "uint256"
        }
      ],
      "payable": false,
      "stateMutability": "view",
      "type": "function"
    },
    {
      "constant": true,
      "inputs": [
        {
          "name": "",
          "type": "uint256"
        }
      ],
      "name": "vehicles",
      "outputs": [
        {
          "name": "id",
          "type": "uint256"
        },
        {
          "name": "owner",
          "type": "address"
        },
        {
          "name": "make",
          "type": "string"
        },
        {
          "name": "model",
          "type": "string"
        },
        {
          "name": "year",
          "type": "string"
        },
        {
          "name": "color",
          "type": "string"
        },
        {
          "name": "licensePlate",
          "type": "string"
        },
        {
          "name": "VIN",
          "type": "string"
        }
      ],
      "payable": false,
      "stateMutability": "view",
      "type": "function"
    },
    {
      "constant": true,
      "inputs": [],
      "name": "admin",
      "outputs": [
        {
          "name": "",
          "type": "address"
        }
      ],
      "payable": false,
      "stateMutability": "view",
      "type": "function"
    },
    {
      "inputs": [],
      "payable": false,
      "stateMutability": "nonpayable",
      "type": "constructor"
    },
    {
      "payable": false,
      "stateMutability": "nonpayable",
      "type": "fallback"
    },
    {
      "anonymous": false,
      "inputs": [
        {
          "indexed": false,
          "name": "id",
          "type": "uint256"
        },
        {
          "indexed": false,
          "name": "owner",
          "type": "address"
        }
      ],
      "name": "VehicleRegistered",
      "type": "event"
    },
    {
      "anonymous": false,
      "inputs": [
        {
          "indexed": false,
          "name": "id",
          "type": "uint256"
        },
        {
          "indexed": false,
          "name": "OldOwner",
          "type": "address"
        },
        {
          "indexed": false,
          "name": "NewOwner",
          "type": "address"
        }
      ],
      "name": "VehicleTransferred",
      "type": "event"
    },
    {
      "constant": true,
      "inputs": [],
      "name": "Balance",
      "outputs": [
        {
          "name": "balance",
          "type": "uint256"
        }
      ],
      "payable": false,
      "stateMutability": "view",
      "type": "function"
    },
    {
      "constant": false,
      "inputs": [
        {
          "name": "make",
          "type": "string"
        },
        {
          "name": "model",
          "type": "string"
        },
        {
          "name": "year",
          "type": "string"
        },
        {
          "name": "color",
          "type": "string"
        },
        {
          "name": "licensePlate",
          "type": "string"
        },
        {
          "name": "VIN",
          "type": "string"
        }
      ],
      "name": "RegisterVehicle",
      "outputs": [],
      "payable": true,
      "stateMutability": "payable",
      "type": "function"
    },
    {
      "constant": false,
      "inputs": [
        {
          "name": "id",
          "type": "uint256"
        },
        {
          "name": "newOwner",
          "type": "address"
        }
      ],
      "name": "TransferOwnership",
      "outputs": [],
      "payable": true,
      "stateMutability": "payable",
      "type": "function"
    },
    {
      "constant": false,
      "inputs": [
        {
          "name": "newAdmin",
          "type": "address"
        }
      ],
      "name": "ChangeAdmin",
      "outputs": [],
      "payable": false,
      "stateMutability": "nonpayable",
      "type": "function"
    },
    {
      "constant": false,
      "inputs": [
        {
          "name": "newCommission",
          "type": "uint256"
        }
      ],
      "name": "SetCommission",
      "outputs": [],
      "payable": false,
      "stateMutability": "nonpayable",
      "type": "function"
    },
    {
      "constant": false,
      "inputs": [
        {
          "name": "balance",
          "type": "uint256"
        }
      ],
      "name": "Withdraw",
      "outputs": [
        {
          "name": "success",
          "type": "bool"
        }
      ],
      "payable": false,
      "stateMutability": "nonpayable",
      "type": "function"
    },
    {
      "constant": false,
      "inputs": [],
      "name": "kill",
      "outputs": [],
      "payable": false,
      "stateMutability": "nonpayable",
      "type": "function"
    }
  ],
  "bytecode": "0x6060604052341561000f57600080fd5b336000806101000a81548173ffffffffffffffffffffffffffffffffffffffff021916908373ffffffffffffffffffffffffffffffffffffffff1602179055506000600381905550670de0b6b3a764000060018190555061133d806100756000396000f3006060604052600436106100a4576000357c0100000000000000000000000000000000000000000000000000000000900463ffffffff1680630cf8e1ba146100b45780630ef6788714610255578063339d61ae1461027e57806341c0e1b5146102b55780635b6b431d146102ca5780636ea5803114610305578063927cc064146103285780639776adb914610361578063b8ba95fa1461038a578063f851a4401461067c575b34156100af57600080fd5b600080fd5b610253600480803590602001908201803590602001908080601f0160208091040260200160405190810160405280939291908181526020018383808284378201915050505050509190803590602001908201803590602001908080601f0160208091040260200160405190810160405280939291908181526020018383808284378201915050505050509190803590602001908201803590602001908080601f0160208091040260200160405190810160405280939291908181526020018383808284378201915050505050509190803590602001908201803590602001908080601f0160208091040260200160405190810160405280939291908181526020018383808284378201915050505050509190803590602001908201803590602001908080601f0160208091040260200160405190810160405280939291908181526020018383808284378201915050505050509190803590602001908201803590602001908080601f016020809104026020016040519081016040528093929190818152602001838380828437820191505050505050919050506106d1565b005b341561026057600080fd5b610268610905565b6040518082815260200191505060405180910390f35b6102b3600480803590602001909190803573ffffffffffffffffffffffffffffffffffffffff1690602001909190505061097f565b005b34156102c057600080fd5b6102c8610b32565b005b34156102d557600080fd5b6102eb6004808035906020019091905050610bc7565b604051808215151515815260200191505060405180910390f35b341561031057600080fd5b6103266004808035906020019091905050610cb2565b005b341561033357600080fd5b61035f600480803573ffffffffffffffffffffffffffffffffffffffff16906020019091905050610d17565b005b341561036c57600080fd5b610374610db5565b6040518082815260200191505060405180910390f35b341561039557600080fd5b6103ab6004808035906020019091905050610dbb565b604051808981526020018873ffffffffffffffffffffffffffffffffffffffff1673ffffffffffffffffffffffffffffffffffffffff16815260200180602001806020018060200180602001806020018060200187810387528d818151815260200191508051906020019080838360005b8381101561043757808201518184015260208101905061041c565b50505050905090810190601f1680156104645780820380516001836020036101000a031916815260200191505b5087810386528c818151815260200191508051906020019080838360005b8381101561049d578082015181840152602081019050610482565b50505050905090810190601f1680156104ca5780820380516001836020036101000a031916815260200191505b5087810385528b818151815260200191508051906020019080838360005b838110156105035780820151818401526020810190506104e8565b50505050905090810190601f1680156105305780820380516001836020036101000a031916815260200191505b5087810384528a818151815260200191508051906020019080838360005b8381101561056957808201518184015260208101905061054e565b50505050905090810190601f1680156105965780820380516001836020036101000a031916815260200191505b50878103835289818151815260200191508051906020019080838360005b838110156105cf5780820151818401526020810190506105b4565b50505050905090810190601f1680156105fc5780820380516001836020036101000a031916815260200191505b50878103825288818151815260200191508051906020019080838360005b8381101561063557808201518184015260208101905061061a565b50505050905090810190601f1680156106625780820380516001836020036101000a031916815260200191505b509e50505050505050505050505050505060405180910390f35b341561068757600080fd5b61068f6111b3565b604051808273ffffffffffffffffffffffffffffffffffffffff1673ffffffffffffffffffffffffffffffffffffffff16815260200191505060405180910390f35b6106d96111d8565b6001543410156106e857600080fd5b60035481600001818152505033816020019073ffffffffffffffffffffffffffffffffffffffff16908173ffffffffffffffffffffffffffffffffffffffff1681525050868160400181905250858160600181905250848160800181905250838160a00181905250828160c00181905250818160e00181905250806002600060035481526020019081526020016000206000820151816000015560208201518160010160006101000a81548173ffffffffffffffffffffffffffffffffffffffff021916908373ffffffffffffffffffffffffffffffffffffffff16021790555060408201518160020190805190602001906107e5929190611258565b506060820151816003019080519060200190610802929190611258565b50608082015181600401908051906020019061081f929190611258565b5060a082015181600501908051906020019061083c929190611258565b5060c0820151816006019080519060200190610859929190611258565b5060e0820151816007019080519060200190610876929190611258565b509050507f5f392c61d263d5e43db807b3b3eb4fec5e7bd977dd126fae15e5f4263ade1d576003548260200151604051808381526020018273ffffffffffffffffffffffffffffffffffffffff1673ffffffffffffffffffffffffffffffffffffffff1681526020019250505060405180910390a1600160036000828254019250508190555050505050505050565b60008060009054906101000a900473ffffffffffffffffffffffffffffffffffffffff1673ffffffffffffffffffffffffffffffffffffffff163373ffffffffffffffffffffffffffffffffffffffff1614151561096257600080fd5b3073ffffffffffffffffffffffffffffffffffffffff1631905090565b600060015434101561099057600080fd5b3373ffffffffffffffffffffffffffffffffffffffff166002600085815260200190815260200160002060010160009054906101000a900473ffffffffffffffffffffffffffffffffffffffff1673ffffffffffffffffffffffffffffffffffffffff16141515610a0057600080fd5b6002600084815260200190815260200160002060010160009054906101000a900473ffffffffffffffffffffffffffffffffffffffff169050816002600085815260200190815260200160002060010160006101000a81548173ffffffffffffffffffffffffffffffffffffffff021916908373ffffffffffffffffffffffffffffffffffffffff1602179055507f52a1ea50926be2b723dca87dfb94f131e588b37cf44a15749e2c5c362c00f4e0838284604051808481526020018373ffffffffffffffffffffffffffffffffffffffff1673ffffffffffffffffffffffffffffffffffffffff1681526020018273ffffffffffffffffffffffffffffffffffffffff1673ffffffffffffffffffffffffffffffffffffffff168152602001935050505060405180910390a1505050565b6000809054906101000a900473ffffffffffffffffffffffffffffffffffffffff1673ffffffffffffffffffffffffffffffffffffffff163373ffffffffffffffffffffffffffffffffffffffff16141515610b8d57600080fd5b6000809054906101000a900473ffffffffffffffffffffffffffffffffffffffff1673ffffffffffffffffffffffffffffffffffffffff16ff5b60008060009054906101000a900473ffffffffffffffffffffffffffffffffffffffff1673ffffffffffffffffffffffffffffffffffffffff163373ffffffffffffffffffffffffffffffffffffffff16141515610c2457600080fd5b3073ffffffffffffffffffffffffffffffffffffffff1631821115610c4857600080fd5b6000809054906101000a900473ffffffffffffffffffffffffffffffffffffffff1673ffffffffffffffffffffffffffffffffffffffff166108fc839081150290604051600060405180830381858888f193505050501515610ca957600080fd5b60019050919050565b6000809054906101000a900473ffffffffffffffffffffffffffffffffffffffff1673ffffffffffffffffffffffffffffffffffffffff163373ffffffffffffffffffffffffffffffffffffffff16141515610d0d57600080fd5b8060018190555050565b6000809054906101000a900473ffffffffffffffffffffffffffffffffffffffff1673ffffffffffffffffffffffffffffffffffffffff163373ffffffffffffffffffffffffffffffffffffffff16141515610d7257600080fd5b806000806101000a81548173ffffffffffffffffffffffffffffffffffffffff021916908373ffffffffffffffffffffffffffffffffffffffff16021790555050565b60035481565b60026020528060005260406000206000915090508060000154908060010160009054906101000a900473ffffffffffffffffffffffffffffffffffffffff1690806002018054600181600116156101000203166002900480601f016020809104026020016040519081016040528092919081815260200182805460018160011615610100020316600290048015610e935780601f10610e6857610100808354040283529160200191610e93565b820191906000526020600020905b815481529060010190602001808311610e7657829003601f168201915b505050505090806003018054600181600116156101000203166002900480601f016020809104026020016040519081016040528092919081815260200182805460018160011615610100020316600290048015610f315780601f10610f0657610100808354040283529160200191610f31565b820191906000526020600020905b815481529060010190602001808311610f1457829003601f168201915b505050505090806004018054600181600116156101000203166002900480601f016020809104026020016040519081016040528092919081815260200182805460018160011615610100020316600290048015610fcf5780601f10610fa457610100808354040283529160200191610fcf565b820191906000526020600020905b815481529060010190602001808311610fb257829003601f168201915b505050505090806005018054600181600116156101000203166002900480601f01602080910402602001604051908101604052809291908181526020018280546001816001161561010002031660029004801561106d5780601f106110425761010080835404028352916020019161106d565b820191906000526020600020905b81548152906001019060200180831161105057829003601f168201915b505050505090806006018054600181600116156101000203166002900480601f01602080910402602001604051908101604052809291908181526020018280546001816001161561010002031660029004801561110b5780601f106110e05761010080835404028352916020019161110b565b820191906000526020600020905b8154815290600101906020018083116110ee57829003601f168201915b505050505090806007018054600181600116156101000203166002900480601f0160208091040260200160405190810160405280929190818152602001828054600181600116156101000203166002900480156111a95780601f1061117e576101008083540402835291602001916111a9565b820191906000526020600020905b81548152906001019060200180831161118c57829003601f168201915b5050505050905088565b6000809054906101000a900473ffffffffffffffffffffffffffffffffffffffff1681565b6101006040519081016040528060008152602001600073ffffffffffffffffffffffffffffffffffffffff1681526020016112116112d8565b815260200161121e6112d8565b815260200161122b6112d8565b81526020016112386112d8565b81526020016112456112d8565b81526020016112526112d8565b81525090565b828054600181600116156101000203166002900490600052602060002090601f016020900481019282601f1061129957805160ff19168380011785556112c7565b828001600101855582156112c7579182015b828111156112c65782518255916020019190600101906112ab565b5b5090506112d491906112ec565b5090565b602060405190810160405280600081525090565b61130e91905b8082111561130a5760008160009055506001016112f2565b5090565b905600a165627a7a72305820e53252a2e9fcaba3935392d578cfe151b628a15de9c9a16a4c7ef31b5b8097ea0029",
  "source": "pragma solidity ^0.4.15;\r\ncontract VehicleRegistry\r\n{\r\n    address public admin;\r\n    uint256 commission;\r\n    mapping(uint256=>Vehicle) public vehicles;\r\n    uint256 public NumberOfVehicles;\r\n    \r\n    struct Vehicle\r\n    {\r\n        uint256 id;\r\n        address owner;\r\n        string make;\r\n        string model;\r\n        string year;\r\n        string color;\r\n        string licensePlate;\r\n        string VIN;\r\n    }\r\n    \r\n    event VehicleRegistered(uint256 id,address owner);\r\n    event VehicleTransferred(uint256 id,address OldOwner, address NewOwner);\r\n    \r\n    function Balance()\r\n        public\r\n        constant\r\n        returns(uint256 balance)\r\n    {\r\n        if(msg.sender!=admin) throw;\r\n        return this.balance;\r\n    }\r\n    \r\n    function VehicleRegistry()\r\n    {\r\n        admin=msg.sender;\r\n        NumberOfVehicles=0;\r\n        commission = 1000000000000000000;\r\n    }\r\n    \r\n    function RegisterVehicle(\r\n        string make,\r\n        string model,\r\n        string year,\r\n        string color,\r\n        string licensePlate,\r\n        string VIN)\r\n        public\r\n        payable\r\n    {\r\n        if(msg.value<commission) throw;\r\n        Vehicle memory vehicle;\r\n        vehicle.id = NumberOfVehicles;\r\n        vehicle.owner = msg.sender;\r\n        vehicle.make = make;\r\n        vehicle.model=model;\r\n        vehicle.year=year;\r\n        vehicle.color=color;\r\n        vehicle.licensePlate = licensePlate;\r\n        vehicle.VIN=VIN;\r\n        \r\n        vehicles[NumberOfVehicles]=vehicle;\r\n        VehicleRegistered(NumberOfVehicles,vehicle.owner);\r\n        NumberOfVehicles+=1;\r\n    }\r\n   \r\n   function TransferOwnership(uint256 id, address newOwner)\r\n    public\r\n    payable\r\n   {\r\n       if(msg.value<commission) throw;\r\n       if(vehicles[id].owner!=msg.sender) throw;\r\n       address oldOwner = vehicles[id].owner;\r\n       vehicles[id].owner = newOwner;\r\n       VehicleTransferred(id,oldOwner,newOwner);\r\n       \r\n   }\r\n   \r\n   function ChangeAdmin(address newAdmin)\r\n    public\r\n   {\r\n       if(msg.sender!=admin) throw;\r\n       admin = newAdmin;\r\n   }\r\n   \r\n   function SetCommission(uint256 newCommission)\r\n   {\r\n       if(msg.sender!=admin) throw;\r\n       commission = newCommission;\r\n   }\r\n   \r\n    function Withdraw(uint256 balance)\r\n        public\r\n        returns(bool success)\r\n    {\r\n         if(msg.sender!=admin) throw;\r\n         if(balance>this.balance) throw;\r\n         if(!admin.send(balance)) throw;\r\n         return true;\r\n    }\r\n    \r\n    function()\r\n    {\r\n        throw;\r\n    }\r\n    \r\n    function kill()\r\n        public\r\n    {\r\n        if(msg.sender!=admin) throw;\r\n        selfdestruct(admin);\r\n    }\r\n\r\n\r\n   \r\n}",
  "sourcePath": "C:\\Users\\prithvi sai\\Desktop\\VehicleRegistry\\VehicleRegistry\\contracts\\VehicleRegistry.sol",
  "compiler": {
    "name": "solc",
    "version": "0.4.21+commit.dfe3193c.Emscripten.clang"
  },
  "schemaVersion": "2.0.0",
  "updatedAt": "2018-05-05T09:43:21.453Z"
}